:060000000A128A11F02F24
:100E440064008001840A0406031900340406232F75
:100E54008316031388018701FF308312031388006C
:100E640087010A128A117D270A128A110028F301C8
:100E7400F40171087402031D412F700873020318F2
:100E84000800F501783075020318502F0130F20084
:100E94007208F50778307502031C482F0130F307F8
:100EA4000318F40A0030F4073B2FF30120307302D7
:100EB400031808008830710783120313FF001230EF
:100EC400700784000318FF0A0A128A1500200A1208
:100ED4008A11F2007308203E840072088313800094
:100EE4000130F0070318F10A0030F1070130F20075
:100EF4007208F307582FFB016A307B0203180800BD
:100F04007B08F600F7017608F0007708F1000A1272
:100F14008A1157270A128A11FD010A307D0203182B
:100F2400EB2FFE30F6007608F9008030F6007608E4
:100F3400FA00FC0108307C020318E32F8312031328
:100F44008710F801203078020318C22F071178089F
:100F5400203E840083130008F6007608C000400891
:100F64007A057A06031DB82F0714B92F0710071541
:100F74000130F6007608F80720307802031CA82F09
:100F840087147A08F6000310760CF7007708FA0045
:100F9400790888000230F0000030F1000A128A114A
:100FA40039270A128A11FF308312031388000314AD
:100FB400F90D0130F6007608FC0708307C02031CAA
:100FC400A02F0130F6007608FD070A307D02031CCD
:100FD400932F0130F6007608FB077E2FF901FA0102
:100FE400FB01FC01FD0183132030840042300A120E
:100FF4008A11222783010A128A112A2FFF1B0A2829
:1010040083137F1883170008840A0319FF0A080052
:101014007F087F398A000408840A0319FF0A8200C2
:10102400FF34FF34FF34FF34FF34FF34FF34FF3424
:10103400FF34FF34FF34FF34FF34FF34FF34FF3414
:10104400FF34FF34FF34FF34FF34FF34FF34FF3404
:10105400FF34FF34FF34FF34FF34FF34FF34FF34F4
:10106400FF34FF34FF34FF34FF34FF34FF34FF34E4
:10107400FF34FF34FF34FF34FF34FF34FF34FF34D4
:10108400FF34FF34FF34FF34FF34FF34FF34FF34C4
:10109400FF34FF34FF34FF34FF34FF34FF34FF34B4
:1010A400FF34FF34FF34FF34FF34FF34FF34FF34A4
:1010B400FF34FF34FF34FF34FF34FF34FF34FF3494
:1010C400FF34FF34FF34FF34FF34FF34FF34FF3484
:1010D400FF34FF34FF34FF34FF34FF34FF34FF3474
:1010E400FF34FF34FF34FF34FF34FF34FF34FF3464
:1010F400FF34FF34FF34FF34FF34FF34FF34FF3454
:10110400FF34FF34FF34FF34FF34FF34FF34FF3443
:10111400FF34FF34FF34FF34FF34FF34FF34FF3433
:10112400FF34FF34FF34FF34FF34FF34FF34FF3423
:10113400FF34FF34FF34FF34FF34FF34FF34FF3413
:10114400FF34FF34FF34FF34FF34FF34FF34FF3403
:10115400FF34FF34FF34FF34FF34FF34FF34FF34F3
:10116400FF34FF34FF34FF34FF34FF34FF34FF34E3
:10117400FF34FF34FF34FF34FF34FF34FF34FF34D3
:10118400FF34FF34FF34FF34FF34FF34FF34FF34C3
:10119400FF34FF34FF34FF34FF34FF34FF34FF34B3
:1011A400FF34FF34FF34FF34FF34FF34FF34FF34A3
:1011B400FF34FF34FF34FF34FF34FF34FF34FF3493
:1011C400FF34FF34FF34FF34FF34FF34FF34FF3483
:1011D400FF34FF34FF34FF34FF34FF34FF34FF3473
:1011E400FF34FF34FF34FF34FF34FF34FF34FF3463
:1011F400FF34FF34FF34FF34FF34FF34FF34FF3453
:10120400FF34FF34FF34FF34FF34FF34FF34FF3442
:10121400FF34FF34FF34FF34FF34FF34FF34FF3432
:10122400003400340034FF34FF34FF34FF34FF341F
:10123400FF34FF34FF34FF34FF34FF34FF34FF3412
:10124400FF34FF34FF34FF34FF34FF34FF34FF3402
:10125400FF34FF34FF34FF34FF34FF34FF34FF34F2
:10126400FF34FF34FF34FF34FF34FF34FF34FF34E2
:10127400FF34FF34FF34FF34FF34FF34FF34FF34D2
:10128400FF34FF34FF34FF34FF34FF34FF34FF34C2
:10129400FF34FF34FF34FF34FF34FF34FF34FF34B2
:1012A400FF34FF34FF34FF34FF34FF34FF34FF34A2
:1012B400FF34FF34FF34FF34FF34FF34FF34FF3492
:1012C400FF34FF34FF34FF34FF34FF34FF34FF3482
:1012D400FF34FF34FF34FF34FF34FF34FF34FF3472
:1012E400FF34FF34FF34FF34FF34FF34FF34FF3462
:1012F400FF34FF34FF34FF34FF34FF34FF34FF3452
:10130400FF34FF34FF34FF34FF34FF34FF34FF3441
:10131400FF34FF34FF34FF34FF34FF34FF34FF3431
:10132400FF34FF34FF34FF34FF34FF34FF34FF3421
:10133400FF34FF34FF34FF34FF34FF34FF34FF3411
:10134400FF34FF34FF34FF34FF34FF34FF34FF3401
:10135400FF34FF34FF34FF34FF34FF34FF34FF34F1
:10136400FF34FF34FF34FF34FF34FF34FF34FF34E1
:10137400FF34FF34FF34FF34FF34FF34FF34FF34D1
:10138400FF34FF34FF34FF34FF34FF34FF34FF34C1
:10139400FF34FF34FF34FF34FF34FF34FF34FF34B1
:1013A400FF34FF34FF34FF34FF34FF34FF34FF34A1
:1013B400FF34FF34FF34FF34FF34FF34FF34FF3491
:1013C400FF34FF34FF34FF34FF34FF34FF34FF3481
:1013D400FF34FF34FF34FF34FF34FF34FF34FF3471
:0613E400FF34FF34FF346A
:02400E007A3FF7
:00000001FF
