:020000040000FA
:1000000007309C0083160030860020308500831264
:100010008601003085003C3086003A2086010130A0
:100020008500423086003A20860102308500A930E2
:1000300086003A20860103308500853086003A200C
:10004000860104308500853086003A20860105301F
:100050008500A93086003A208601063085004230AE
:1000600086003A208601073085003C3086003A2021
:1000700086010928FF30A000A100A00B3D28A10B9C
:040080003D2808000F
:040084000034003410
:00000001FF
