:020000040000FA
:100000008316031386018312031386018130A60031
:100010004230A5002430A7002608860026202508A7
:10002000860019202708860033200C28003086001F
:1000300008000130A200FF30A300FF30A400A40B91
:100040001F28A30B1D28A20B1B2808000030A200AC
:10005000FF30A300FF30A400A40B2C28A30B2A28F8
:10006000A20B282808000130A200FF30A300FF30B7
:10007000A400A40B3928A30B3728A20B35280800AD
:040080000034003414
:00000001FF
